:060000000A128A110C280F
:10000800FE00030EF2000A08F3000A128A11AD2856
:100018000A128A110F280A128A1161210A128A11FA
:10002800FA00F701F801F90183010A128A11092976
:1000380002308316031788008901033083160313DF
:100048008600831203138601831603138113151484
:1000580095148B15161496140B108801831203132C
:100068008801233083160313850083120313850147
:100078007030831603138F040F1483120313051CA7
:1000880046284728762810308316031387008312E2
:1000980003138701F0309405141294168316031382
:1000A80014179417831203139301831603139F13D2
:1000B8001F129F12831203131F083F3980389F00B5
:1000C8001F08C33904389F001F142130F400F40BB3
:1000D8006B288B170B17831603130C178312031344
:1000E8000C13AC28183083160313870083120313EC
:1000F80087011408F03904389400141294168316F2
:1001080003131417941307153F308312031397052D
:100118001708F0390C3897000F309500CF30970545
:10012800FF308316031392000330831203139204E3
:1001380012158C108C1CA128A2289E288C108316BE
:10014800031307118B170B178C15831203138C11CC
:100158000800831203130C1FB228B328C1281F0CF0
:10016800F000700C0F39013A031DBB28BC28C128C8
:100178001E08F0007008F7000C130518C428C528DD
:1001880002290B1CC828C928E0280618CC28CD2825
:10019800D5280130F0007008FA077A08F1007108D4
:1001A800FA008618D828D928DF280130FA027A08F8
:1001B800F0007008FA000B108C1DE328E4280229CF
:1001C8001308F0007008F800780A0319EC28ED28E5
:1001D80001297808F0000310700C7C3E950078081F
:1001E8000139F000F00EF00D17087006DF397006BF
:1001F80097007A0893007A0888008C1173088A009F
:10020800720E8300FE0E7E0E09000A128A111C204F
:100218000A128A11831203139F14051C1429152925
:1002280011299F181829192925290330F600973014
:10023800F500F50B1D29F60B1D292229831203133E
:100248009F147708930083160313141C2C292D2957
:1002580027298312031305171A30F600F830F50022
:10026800F50B3429F60B3429000083120313051308
:1002780083160313141C412942293C2983120313B2
:1002880085171A30F600F830F500F50B4929F60BFA
:1002980049290000831203138513FF309300831646
:1002A8000313141C582959295329831203131308BB
:0C02B800880011290A128A110C28FF345A
:08400000FF3FFF3FFF3FFF3FC0
:04400E00D420FF3F7C
:00000001FF
